{
  "_format": "hh-sol-artifact-1",
  "contractName": "BorrowYourCar",
  "sourceName": "contracts/BorrowYourCar.sol",
  "abi": [
    {
      "inputs": [],
      "stateMutability": "nonpayable",
      "type": "constructor"
    },
    {
      "inputs": [
        {
          "internalType": "address",
          "name": "sender",
          "type": "address"
        },
        {
          "internalType": "uint256",
          "name": "tokenId",
          "type": "uint256"
        },
        {
          "internalType": "address",
          "name": "owner",
          "type": "address"
        }
      ],
      "name": "ERC721IncorrectOwner",
      "type": "error"
    },
    {
      "inputs": [
        {
          "internalType": "address",
          "name": "operator",
          "type": "address"
        },
        {
          "internalType": "uint256",
          "name": "tokenId",
          "type": "uint256"
        }
      ],
      "name": "ERC721InsufficientApproval",
      "type": "error"
    },
    {
      "inputs": [
        {
          "internalType": "address",
          "name": "approver",
          "type": "address"
        }
      ],
      "name": "ERC721InvalidApprover",
      "type": "error"
    },
    {
      "inputs": [
        {
          "internalType": "address",
          "name": "operator",
          "type": "address"
        }
      ],
      "name": "ERC721InvalidOperator",
      "type": "error"
    },
    {
      "inputs": [
        {
          "internalType": "address",
          "name": "owner",
          "type": "address"
        }
      ],
      "name": "ERC721InvalidOwner",
      "type": "error"
    },
    {
      "inputs": [
        {
          "internalType": "address",
          "name": "receiver",
          "type": "address"
        }
      ],
      "name": "ERC721InvalidReceiver",
      "type": "error"
    },
    {
      "inputs": [
        {
          "internalType": "address",
          "name": "sender",
          "type": "address"
        }
      ],
      "name": "ERC721InvalidSender",
      "type": "error"
    },
    {
      "inputs": [
        {
          "internalType": "uint256",
          "name": "tokenId",
          "type": "uint256"
        }
      ],
      "name": "ERC721NonexistentToken",
      "type": "error"
    },
    {
      "anonymous": false,
      "inputs": [
        {
          "indexed": true,
          "internalType": "address",
          "name": "owner",
          "type": "address"
        },
        {
          "indexed": true,
          "internalType": "address",
          "name": "approved",
          "type": "address"
        },
        {
          "indexed": true,
          "internalType": "uint256",
          "name": "tokenId",
          "type": "uint256"
        }
      ],
      "name": "Approval",
      "type": "event"
    },
    {
      "anonymous": false,
      "inputs": [
        {
          "indexed": true,
          "internalType": "address",
          "name": "owner",
          "type": "address"
        },
        {
          "indexed": true,
          "internalType": "address",
          "name": "operator",
          "type": "address"
        },
        {
          "indexed": false,
          "internalType": "bool",
          "name": "approved",
          "type": "bool"
        }
      ],
      "name": "ApprovalForAll",
      "type": "event"
    },
    {
      "anonymous": false,
      "inputs": [
        {
          "indexed": false,
          "internalType": "uint256",
          "name": "carTokenId",
          "type": "uint256"
        },
        {
          "indexed": false,
          "internalType": "address",
          "name": "borrower",
          "type": "address"
        },
        {
          "indexed": false,
          "internalType": "uint256",
          "name": "startTime",
          "type": "uint256"
        },
        {
          "indexed": false,
          "internalType": "uint256",
          "name": "duration",
          "type": "uint256"
        }
      ],
      "name": "CarBorrowed",
      "type": "event"
    },
    {
      "anonymous": false,
      "inputs": [
        {
          "indexed": true,
          "internalType": "address",
          "name": "from",
          "type": "address"
        },
        {
          "indexed": true,
          "internalType": "address",
          "name": "to",
          "type": "address"
        },
        {
          "indexed": true,
          "internalType": "uint256",
          "name": "tokenId",
          "type": "uint256"
        }
      ],
      "name": "Transfer",
      "type": "event"
    },
    {
      "inputs": [
        {
          "internalType": "address",
          "name": "to",
          "type": "address"
        },
        {
          "internalType": "uint256",
          "name": "tokenId",
          "type": "uint256"
        }
      ],
      "name": "approve",
      "outputs": [],
      "stateMutability": "nonpayable",
      "type": "function"
    },
    {
      "inputs": [
        {
          "internalType": "address",
          "name": "owner",
          "type": "address"
        }
      ],
      "name": "balanceOf",
      "outputs": [
        {
          "internalType": "uint256",
          "name": "",
          "type": "uint256"
        }
      ],
      "stateMutability": "view",
      "type": "function"
    },
    {
      "inputs": [
        {
          "internalType": "uint256",
          "name": "tokenId",
          "type": "uint256"
        },
        {
          "internalType": "uint256",
          "name": "duration",
          "type": "uint256"
        }
      ],
      "name": "borrowCar",
      "outputs": [],
      "stateMutability": "nonpayable",
      "type": "function"
    },
    {
      "inputs": [
        {
          "internalType": "uint256",
          "name": "",
          "type": "uint256"
        }
      ],
      "name": "cars",
      "outputs": [
        {
          "internalType": "address",
          "name": "owner",
          "type": "address"
        },
        {
          "internalType": "address",
          "name": "borrower",
          "type": "address"
        },
        {
          "internalType": "uint256",
          "name": "borrowUntil",
          "type": "uint256"
        }
      ],
      "stateMutability": "view",
      "type": "function"
    },
    {
      "inputs": [
        {
          "internalType": "address",
          "name": "recipient",
          "type": "address"
        }
      ],
      "name": "distributeCarNFT",
      "outputs": [],
      "stateMutability": "nonpayable",
      "type": "function"
    },
    {
      "inputs": [
        {
          "internalType": "uint256",
          "name": "tokenId",
          "type": "uint256"
        }
      ],
      "name": "getApproved",
      "outputs": [
        {
          "internalType": "address",
          "name": "",
          "type": "address"
        }
      ],
      "stateMutability": "view",
      "type": "function"
    },
    {
      "inputs": [],
      "name": "getAvailableCars",
      "outputs": [
        {
          "internalType": "uint256[]",
          "name": "",
          "type": "uint256[]"
        }
      ],
      "stateMutability": "view",
      "type": "function"
    },
    {
      "inputs": [
        {
          "internalType": "uint256",
          "name": "tokenId",
          "type": "uint256"
        }
      ],
      "name": "getCarStatus",
      "outputs": [
        {
          "internalType": "address",
          "name": "owner",
          "type": "address"
        },
        {
          "internalType": "address",
          "name": "borrower",
          "type": "address"
        },
        {
          "internalType": "uint256",
          "name": "borrowUntil",
          "type": "uint256"
        }
      ],
      "stateMutability": "view",
      "type": "function"
    },
    {
      "inputs": [
        {
          "internalType": "address",
          "name": "user",
          "type": "address"
        }
      ],
      "name": "getUserCars",
      "outputs": [
        {
          "internalType": "uint256[]",
          "name": "",
          "type": "uint256[]"
        }
      ],
      "stateMutability": "view",
      "type": "function"
    },
    {
      "inputs": [
        {
          "internalType": "address",
          "name": "owner",
          "type": "address"
        },
        {
          "internalType": "address",
          "name": "operator",
          "type": "address"
        }
      ],
      "name": "isApprovedForAll",
      "outputs": [
        {
          "internalType": "bool",
          "name": "",
          "type": "bool"
        }
      ],
      "stateMutability": "view",
      "type": "function"
    },
    {
      "inputs": [],
      "name": "manager",
      "outputs": [
        {
          "internalType": "address",
          "name": "",
          "type": "address"
        }
      ],
      "stateMutability": "view",
      "type": "function"
    },
    {
      "inputs": [],
      "name": "mintCarNFT",
      "outputs": [],
      "stateMutability": "nonpayable",
      "type": "function"
    },
    {
      "inputs": [],
      "name": "myERC721",
      "outputs": [
        {
          "internalType": "contract MyERC721",
          "name": "",
          "type": "address"
        }
      ],
      "stateMutability": "view",
      "type": "function"
    },
    {
      "inputs": [],
      "name": "name",
      "outputs": [
        {
          "internalType": "string",
          "name": "",
          "type": "string"
        }
      ],
      "stateMutability": "view",
      "type": "function"
    },
    {
      "inputs": [],
      "name": "nextTokenId",
      "outputs": [
        {
          "internalType": "uint256",
          "name": "",
          "type": "uint256"
        }
      ],
      "stateMutability": "view",
      "type": "function"
    },
    {
      "inputs": [
        {
          "internalType": "uint256",
          "name": "tokenId",
          "type": "uint256"
        }
      ],
      "name": "ownerOf",
      "outputs": [
        {
          "internalType": "address",
          "name": "",
          "type": "address"
        }
      ],
      "stateMutability": "view",
      "type": "function"
    },
    {
      "inputs": [
        {
          "internalType": "address",
          "name": "from",
          "type": "address"
        },
        {
          "internalType": "address",
          "name": "to",
          "type": "address"
        },
        {
          "internalType": "uint256",
          "name": "tokenId",
          "type": "uint256"
        }
      ],
      "name": "safeTransferFrom",
      "outputs": [],
      "stateMutability": "nonpayable",
      "type": "function"
    },
    {
      "inputs": [
        {
          "internalType": "address",
          "name": "from",
          "type": "address"
        },
        {
          "internalType": "address",
          "name": "to",
          "type": "address"
        },
        {
          "internalType": "uint256",
          "name": "tokenId",
          "type": "uint256"
        },
        {
          "internalType": "bytes",
          "name": "data",
          "type": "bytes"
        }
      ],
      "name": "safeTransferFrom",
      "outputs": [],
      "stateMutability": "nonpayable",
      "type": "function"
    },
    {
      "inputs": [
        {
          "internalType": "address",
          "name": "operator",
          "type": "address"
        },
        {
          "internalType": "bool",
          "name": "approved",
          "type": "bool"
        }
      ],
      "name": "setApprovalForAll",
      "outputs": [],
      "stateMutability": "nonpayable",
      "type": "function"
    },
    {
      "inputs": [
        {
          "internalType": "bytes4",
          "name": "interfaceId",
          "type": "bytes4"
        }
      ],
      "name": "supportsInterface",
      "outputs": [
        {
          "internalType": "bool",
          "name": "",
          "type": "bool"
        }
      ],
      "stateMutability": "view",
      "type": "function"
    },
    {
      "inputs": [],
      "name": "symbol",
      "outputs": [
        {
          "internalType": "string",
          "name": "",
          "type": "string"
        }
      ],
      "stateMutability": "view",
      "type": "function"
    },
    {
      "inputs": [
        {
          "internalType": "uint256",
          "name": "tokenId",
          "type": "uint256"
        }
      ],
      "name": "tokenURI",
      "outputs": [
        {
          "internalType": "string",
          "name": "",
          "type": "string"
        }
      ],
      "stateMutability": "view",
      "type": "function"
    },
    {
      "inputs": [
        {
          "internalType": "address",
          "name": "from",
          "type": "address"
        },
        {
          "internalType": "address",
          "name": "to",
          "type": "address"
        },
        {
          "internalType": "uint256",
          "name": "tokenId",
          "type": "uint256"
        }
      ],
      "name": "transferFrom",
      "outputs": [],
      "stateMutability": "nonpayable",
      "type": "function"
    }
  ],
  "bytecode": "0x60806040523480156200001157600080fd5b506040518060400160405280600a81526020017f4d79436172546f6b656e000000000000000000000000000000000000000000008152506040518060400160405280600381526020017f434152000000000000000000000000000000000000000000000000000000000081525081600090816200008f919062000365565b508060019081620000a1919062000365565b50505033600760006101000a81548173ffffffffffffffffffffffffffffffffffffffff021916908373ffffffffffffffffffffffffffffffffffffffff1602179055506200044c565b600081519050919050565b7f4e487b7100000000000000000000000000000000000000000000000000000000600052604160045260246000fd5b7f4e487b7100000000000000000000000000000000000000000000000000000000600052602260045260246000fd5b600060028204905060018216806200016d57607f821691505b60208210810362000183576200018262000125565b5b50919050565b60008190508160005260206000209050919050565b60006020601f8301049050919050565b600082821b905092915050565b600060088302620001ed7fffffffffffffffffffffffffffffffffffffffffffffffffffffffffffffffff82620001ae565b620001f98683620001ae565b95508019841693508086168417925050509392505050565b6000819050919050565b6000819050919050565b600062000246620002406200023a8462000211565b6200021b565b62000211565b9050919050565b6000819050919050565b620002628362000225565b6200027a62000271826200024d565b848454620001bb565b825550505050565b600090565b6200029162000282565b6200029e81848462000257565b505050565b5b81811015620002c657620002ba60008262000287565b600181019050620002a4565b5050565b601f8211156200031557620002df8162000189565b620002ea846200019e565b81016020851015620002fa578190505b6200031262000309856200019e565b830182620002a3565b50505b505050565b600082821c905092915050565b60006200033a600019846008026200031a565b1980831691505092915050565b600062000355838362000327565b9150826002028217905092915050565b6200037082620000eb565b67ffffffffffffffff8111156200038c576200038b620000f6565b5b62000398825462000154565b620003a5828285620002ca565b600060209050601f831160018114620003dd5760008415620003c8578287015190505b620003d4858262000347565b86555062000444565b601f198416620003ed8662000189565b60005b828110156200041757848901518255600182019150602085019450602081019050620003f0565b8683101562000437578489015162000433601f89168262000327565b8355505b6001600288020188555050505b505050505050565b612f26806200045c6000396000f3fe608060405234801561001057600080fd5b506004361061014d5760003560e01c806370a08231116100c3578063a22cb4651161007c578063a22cb465146103a2578063b88d4fde146103be578063c87b56dd146103da578063e865af041461040a578063e985e9c514610426578063f7746e36146104565761014d565b806370a08231146102ca57806375794a3c146102fa5780637b5da164146103185780637c9e82d6146103345780638f334e8d1461036657806395d89b41146103845761014d565b80632698286c116101155780632698286c146102085780633e4a9afe1461023857806342842e0e14610242578063433b80461461025e578063481c6a751461027c5780636352211e1461029a5761014d565b806301ffc9a71461015257806306fdde0314610182578063081812fc146101a0578063095ea7b3146101d057806323b872dd146101ec575b600080fd5b61016c60048036038101906101679190612262565b610488565b60405161017991906122aa565b60405180910390f35b61018a61056a565b6040516101979190612355565b60405180910390f35b6101ba60048036038101906101b591906123ad565b6105fc565b6040516101c7919061241b565b60405180910390f35b6101ea60048036038101906101e59190612462565b610618565b005b610206600480360381019061020191906124a2565b61062e565b005b610222600480360381019061021d91906124f5565b610730565b60405161022f91906125e0565b60405180910390f35b610240610882565b005b61025c600480360381019061025791906124a2565b610a45565b005b610266610a65565b60405161027391906125e0565b60405180910390f35b610284610c13565b604051610291919061241b565b60405180910390f35b6102b460048036038101906102af91906123ad565b610c39565b6040516102c1919061241b565b60405180910390f35b6102e460048036038101906102df91906124f5565b610c4b565b6040516102f19190612611565b60405180910390f35b610302610d05565b60405161030f9190612611565b60405180910390f35b610332600480360381019061032d91906124f5565b610d0b565b005b61034e600480360381019061034991906123ad565b610e77565b60405161035d9392919061262c565b60405180910390f35b61036e610f18565b60405161037b91906126c2565b60405180910390f35b61038c610f3e565b6040516103999190612355565b60405180910390f35b6103bc60048036038101906103b79190612709565b610fd0565b005b6103d860048036038101906103d3919061287e565b610fe6565b005b6103f460048036038101906103ef91906123ad565b611003565b6040516104019190612355565b60405180910390f35b610424600480360381019061041f9190612901565b61106c565b005b610440600480360381019061043b9190612941565b6111f3565b60405161044d91906122aa565b60405180910390f35b610470600480360381019061046b91906123ad565b611287565b60405161047f9392919061262c565b60405180910390f35b60007f80ac58cd000000000000000000000000000000000000000000000000000000007bffffffffffffffffffffffffffffffffffffffffffffffffffffffff1916827bffffffffffffffffffffffffffffffffffffffffffffffffffffffff1916148061055357507f5b5e139f000000000000000000000000000000000000000000000000000000007bffffffffffffffffffffffffffffffffffffffffffffffffffffffff1916827bffffffffffffffffffffffffffffffffffffffffffffffffffffffff1916145b806105635750610562826112f1565b5b9050919050565b606060008054610579906129b0565b80601f01602080910402602001604051908101604052809291908181526020018280546105a5906129b0565b80156105f25780601f106105c7576101008083540402835291602001916105f2565b820191906000526020600020905b8154815290600101906020018083116105d557829003601f168201915b5050505050905090565b60006106078261135b565b50610611826113e3565b9050919050565b61062a8282610625611420565b611428565b5050565b600073ffffffffffffffffffffffffffffffffffffffff168273ffffffffffffffffffffffffffffffffffffffff16036106a05760006040517f64a0ae92000000000000000000000000000000000000000000000000000000008152600401610697919061241b565b60405180910390fd5b60006106b483836106af611420565b61143a565b90508373ffffffffffffffffffffffffffffffffffffffff168173ffffffffffffffffffffffffffffffffffffffff161461072a578382826040517f64283d7b000000000000000000000000000000000000000000000000000000008152600401610721939291906129e1565b60405180910390fd5b50505050565b60606000805b60095481101561079d578373ffffffffffffffffffffffffffffffffffffffff1661076082610c39565b73ffffffffffffffffffffffffffffffffffffffff160361078a57818061078690612a47565b9250505b808061079590612a47565b915050610736565b5060008167ffffffffffffffff8111156107ba576107b9612753565b5b6040519080825280602002602001820160405280156107e85781602001602082028036833780820191505090505b5090506000805b600954811015610876578573ffffffffffffffffffffffffffffffffffffffff1661081982610c39565b73ffffffffffffffffffffffffffffffffffffffff1603610863578083838151811061084857610847612a8f565b5b602002602001018181525050818061085f90612a47565b9250505b808061086e90612a47565b9150506107ef565b50819350505050919050565b600760009054906101000a900473ffffffffffffffffffffffffffffffffffffffff1673ffffffffffffffffffffffffffffffffffffffff163373ffffffffffffffffffffffffffffffffffffffff16146108dc57600080fd5b6001600981905550600060095490506108f53382611654565b6009600081548092919061090890612a47565b919050555060405180606001604052803373ffffffffffffffffffffffffffffffffffffffff168152602001600073ffffffffffffffffffffffffffffffffffffffff16815260200160008152506008600083815260200190815260200160002060008201518160000160006101000a81548173ffffffffffffffffffffffffffffffffffffffff021916908373ffffffffffffffffffffffffffffffffffffffff16021790555060208201518160010160006101000a81548173ffffffffffffffffffffffffffffffffffffffff021916908373ffffffffffffffffffffffffffffffffffffffff160217905550604082015181600201559050507f8879d78706834dc00d82232992f71250fab6a1f70b08260968253950083d88cd8133600080604051610a3a9493929190612af9565b60405180910390a150565b610a6083838360405180602001604052806000815250610fe6565b505050565b60606000805b600954811015610b0157600073ffffffffffffffffffffffffffffffffffffffff166008600083815260200190815260200160002060010160009054906101000a900473ffffffffffffffffffffffffffffffffffffffff1673ffffffffffffffffffffffffffffffffffffffff1603610aee578180610aea90612a47565b9250505b8080610af990612a47565b915050610a6b565b5060008167ffffffffffffffff811115610b1e57610b1d612753565b5b604051908082528060200260200182016040528015610b4c5781602001602082028036833780820191505090505b5090506000805b600954811015610c0957600073ffffffffffffffffffffffffffffffffffffffff166008600083815260200190815260200160002060010160009054906101000a900473ffffffffffffffffffffffffffffffffffffffff1673ffffffffffffffffffffffffffffffffffffffff1603610bf65780838381518110610bdb57610bda612a8f565b5b6020026020010181815250508180610bf290612a47565b9250505b8080610c0190612a47565b915050610b53565b5081935050505090565b600760009054906101000a900473ffffffffffffffffffffffffffffffffffffffff1681565b6000610c448261135b565b9050919050565b60008073ffffffffffffffffffffffffffffffffffffffff168273ffffffffffffffffffffffffffffffffffffffff1603610cbe5760006040517f89c62b64000000000000000000000000000000000000000000000000000000008152600401610cb5919061241b565b60405180910390fd5b600360008373ffffffffffffffffffffffffffffffffffffffff1673ffffffffffffffffffffffffffffffffffffffff168152602001908152602001600020549050919050565b60095481565b600760009054906101000a900473ffffffffffffffffffffffffffffffffffffffff1673ffffffffffffffffffffffffffffffffffffffff163373ffffffffffffffffffffffffffffffffffffffff1614610d6557600080fd5b6001600981905550600060095411610db2576040517f08c379a0000000000000000000000000000000000000000000000000000000008152600401610da990612bb0565b60405180910390fd5b60006001600954610dc39190612bd0565b9050610de033838360405180602001604052806000815250611672565b816008600083815260200190815260200160002060000160006101000a81548173ffffffffffffffffffffffffffffffffffffffff021916908373ffffffffffffffffffffffffffffffffffffffff1602179055507f8879d78706834dc00d82232992f71250fab6a1f70b08260968253950083d88cd8183600080604051610e6b9493929190612af9565b60405180910390a15050565b60008060006009548410610ec0576040517f08c379a0000000000000000000000000000000000000000000000000000000008152600401610eb790612c50565b60405180910390fd5b6000600860008681526020019081526020016000209050610ee085610c39565b93508060010160009054906101000a900473ffffffffffffffffffffffffffffffffffffffff16925080600201549150509193909250565b600660009054906101000a900473ffffffffffffffffffffffffffffffffffffffff1681565b606060018054610f4d906129b0565b80601f0160208091040260200160405190810160405280929190818152602001828054610f79906129b0565b8015610fc65780601f10610f9b57610100808354040283529160200191610fc6565b820191906000526020600020905b815481529060010190602001808311610fa957829003601f168201915b5050505050905090565b610fe2610fdb611420565b838361168f565b5050565b610ff184848461062e565b610ffd848484846117fe565b50505050565b606061100e8261135b565b5060006110196119b5565b905060008151116110395760405180602001604052806000815250611064565b80611043846119cc565b604051602001611054929190612cac565b6040516020818303038152906040525b915050919050565b60095482106110b0576040517f08c379a00000000000000000000000000000000000000000000000000000000081526004016110a790612c50565b60405180910390fd5b6000600860008481526020019081526020016000209050600073ffffffffffffffffffffffffffffffffffffffff168160010160009054906101000a900473ffffffffffffffffffffffffffffffffffffffff1673ffffffffffffffffffffffffffffffffffffffff161461115a576040517f08c379a000000000000000000000000000000000000000000000000000000000815260040161115190612d1c565b60405180910390fd5b338160010160006101000a81548173ffffffffffffffffffffffffffffffffffffffff021916908373ffffffffffffffffffffffffffffffffffffffff16021790555081426111a99190612d3c565b81600201819055507f8879d78706834dc00d82232992f71250fab6a1f70b08260968253950083d88cd833342856040516111e69493929190612d70565b60405180910390a1505050565b6000600560008473ffffffffffffffffffffffffffffffffffffffff1673ffffffffffffffffffffffffffffffffffffffff16815260200190815260200160002060008373ffffffffffffffffffffffffffffffffffffffff1673ffffffffffffffffffffffffffffffffffffffff16815260200190815260200160002060009054906101000a900460ff16905092915050565b60086020528060005260406000206000915090508060000160009054906101000a900473ffffffffffffffffffffffffffffffffffffffff16908060010160009054906101000a900473ffffffffffffffffffffffffffffffffffffffff16908060020154905083565b60007f01ffc9a7000000000000000000000000000000000000000000000000000000007bffffffffffffffffffffffffffffffffffffffffffffffffffffffff1916827bffffffffffffffffffffffffffffffffffffffffffffffffffffffff1916149050919050565b60008061136783611a9a565b9050600073ffffffffffffffffffffffffffffffffffffffff168173ffffffffffffffffffffffffffffffffffffffff16036113da57826040517f7e2732890000000000000000000000000000000000000000000000000000000081526004016113d19190612611565b60405180910390fd5b80915050919050565b60006004600083815260200190815260200160002060009054906101000a900473ffffffffffffffffffffffffffffffffffffffff169050919050565b600033905090565b6114358383836001611ad7565b505050565b60008061144684611a9a565b9050600073ffffffffffffffffffffffffffffffffffffffff168373ffffffffffffffffffffffffffffffffffffffff161461148857611487818486611c9c565b5b600073ffffffffffffffffffffffffffffffffffffffff168173ffffffffffffffffffffffffffffffffffffffff1614611519576114ca600085600080611ad7565b6001600360008373ffffffffffffffffffffffffffffffffffffffff1673ffffffffffffffffffffffffffffffffffffffff168152602001908152602001600020600082825403925050819055505b600073ffffffffffffffffffffffffffffffffffffffff168573ffffffffffffffffffffffffffffffffffffffff161461159c576001600360008773ffffffffffffffffffffffffffffffffffffffff1673ffffffffffffffffffffffffffffffffffffffff168152602001908152602001600020600082825401925050819055505b846002600086815260200190815260200160002060006101000a81548173ffffffffffffffffffffffffffffffffffffffff021916908373ffffffffffffffffffffffffffffffffffffffff160217905550838573ffffffffffffffffffffffffffffffffffffffff168273ffffffffffffffffffffffffffffffffffffffff167fddf252ad1be2c89b69c2b068fc378daa952ba7f163c4a11628f55a4df523b3ef60405160405180910390a4809150509392505050565b61166e828260405180602001604052806000815250611d60565b5050565b61167d848484611d7c565b611689848484846117fe565b50505050565b600073ffffffffffffffffffffffffffffffffffffffff168273ffffffffffffffffffffffffffffffffffffffff160361170057816040517f5b08ba180000000000000000000000000000000000000000000000000000000081526004016116f7919061241b565b60405180910390fd5b80600560008573ffffffffffffffffffffffffffffffffffffffff1673ffffffffffffffffffffffffffffffffffffffff16815260200190815260200160002060008473ffffffffffffffffffffffffffffffffffffffff1673ffffffffffffffffffffffffffffffffffffffff16815260200190815260200160002060006101000a81548160ff0219169083151502179055508173ffffffffffffffffffffffffffffffffffffffff168373ffffffffffffffffffffffffffffffffffffffff167f17307eab39ab6107e8899845ad3d59bd9653f200f220920489ca2b5937696c31836040516117f191906122aa565b60405180910390a3505050565b60008373ffffffffffffffffffffffffffffffffffffffff163b11156119af578273ffffffffffffffffffffffffffffffffffffffff1663150b7a02611842611420565b8685856040518563ffffffff1660e01b81526004016118649493929190612e0a565b6020604051808303816000875af19250505080156118a057506040513d601f19601f8201168201806040525081019061189d9190612e6b565b60015b611924573d80600081146118d0576040519150601f19603f3d011682016040523d82523d6000602084013e6118d5565b606091505b50600081510361191c57836040517f64a0ae92000000000000000000000000000000000000000000000000000000008152600401611913919061241b565b60405180910390fd5b805181602001fd5b63150b7a0260e01b7bffffffffffffffffffffffffffffffffffffffffffffffffffffffff1916817bffffffffffffffffffffffffffffffffffffffffffffffffffffffff1916146119ad57836040517f64a0ae920000000000000000000000000000000000000000000000000000000081526004016119a4919061241b565b60405180910390fd5b505b50505050565b606060405180602001604052806000815250905090565b6060600060016119db84611ee9565b01905060008167ffffffffffffffff8111156119fa576119f9612753565b5b6040519080825280601f01601f191660200182016040528015611a2c5781602001600182028036833780820191505090505b509050600082602001820190505b600115611a8f578080600190039150507f3031323334353637383961626364656600000000000000000000000000000000600a86061a8153600a8581611a8357611a82612e98565b5b04945060008503611a3a575b819350505050919050565b60006002600083815260200190815260200160002060009054906101000a900473ffffffffffffffffffffffffffffffffffffffff169050919050565b8080611b105750600073ffffffffffffffffffffffffffffffffffffffff168273ffffffffffffffffffffffffffffffffffffffff1614155b15611c44576000611b208461135b565b9050600073ffffffffffffffffffffffffffffffffffffffff168373ffffffffffffffffffffffffffffffffffffffff1614158015611b8b57508273ffffffffffffffffffffffffffffffffffffffff168173ffffffffffffffffffffffffffffffffffffffff1614155b8015611b9e5750611b9c81846111f3565b155b15611be057826040517fa9fbf51f000000000000000000000000000000000000000000000000000000008152600401611bd7919061241b565b60405180910390fd5b8115611c4257838573ffffffffffffffffffffffffffffffffffffffff168273ffffffffffffffffffffffffffffffffffffffff167f8c5be1e5ebec7d5bd14f71427d1e84f3dd0314c0f7b2291e5b200ac8c7c3b92560405160405180910390a45b505b836004600085815260200190815260200160002060006101000a81548173ffffffffffffffffffffffffffffffffffffffff021916908373ffffffffffffffffffffffffffffffffffffffff16021790555050505050565b611ca783838361203c565b611d5b57600073ffffffffffffffffffffffffffffffffffffffff168373ffffffffffffffffffffffffffffffffffffffff1603611d1c57806040517f7e273289000000000000000000000000000000000000000000000000000000008152600401611d139190612611565b60405180910390fd5b81816040517f177e802f000000000000000000000000000000000000000000000000000000008152600401611d52929190612ec7565b60405180910390fd5b505050565b611d6a83836120fd565b611d7760008484846117fe565b505050565b600073ffffffffffffffffffffffffffffffffffffffff168273ffffffffffffffffffffffffffffffffffffffff1603611dee5760006040517f64a0ae92000000000000000000000000000000000000000000000000000000008152600401611de5919061241b565b60405180910390fd5b6000611dfc8383600061143a565b9050600073ffffffffffffffffffffffffffffffffffffffff168173ffffffffffffffffffffffffffffffffffffffff1603611e6f57816040517f7e273289000000000000000000000000000000000000000000000000000000008152600401611e669190612611565b60405180910390fd5b8373ffffffffffffffffffffffffffffffffffffffff168173ffffffffffffffffffffffffffffffffffffffff1614611ee3578382826040517f64283d7b000000000000000000000000000000000000000000000000000000008152600401611eda939291906129e1565b60405180910390fd5b50505050565b600080600090507a184f03e93ff9f4daa797ed6e38ed64bf6a1f0100000000000000008310611f47577a184f03e93ff9f4daa797ed6e38ed64bf6a1f0100000000000000008381611f3d57611f3c612e98565b5b0492506040810190505b6d04ee2d6d415b85acef81000000008310611f84576d04ee2d6d415b85acef81000000008381611f7a57611f79612e98565b5b0492506020810190505b662386f26fc100008310611fb357662386f26fc100008381611fa957611fa8612e98565b5b0492506010810190505b6305f5e1008310611fdc576305f5e1008381611fd257611fd1612e98565b5b0492506008810190505b6127108310612001576127108381611ff757611ff6612e98565b5b0492506004810190505b60648310612024576064838161201a57612019612e98565b5b0492506002810190505b600a8310612033576001810190505b80915050919050565b60008073ffffffffffffffffffffffffffffffffffffffff168373ffffffffffffffffffffffffffffffffffffffff16141580156120f457508273ffffffffffffffffffffffffffffffffffffffff168473ffffffffffffffffffffffffffffffffffffffff1614806120b557506120b484846111f3565b5b806120f357508273ffffffffffffffffffffffffffffffffffffffff166120db836113e3565b73ffffffffffffffffffffffffffffffffffffffff16145b5b90509392505050565b600073ffffffffffffffffffffffffffffffffffffffff168273ffffffffffffffffffffffffffffffffffffffff160361216f5760006040517f64a0ae92000000000000000000000000000000000000000000000000000000008152600401612166919061241b565b60405180910390fd5b600061217d8383600061143a565b9050600073ffffffffffffffffffffffffffffffffffffffff168173ffffffffffffffffffffffffffffffffffffffff16146121f15760006040517f73c6ac6e0000000000000000000000000000000000000000000000000000000081526004016121e8919061241b565b60405180910390fd5b505050565b6000604051905090565b600080fd5b600080fd5b60007fffffffff0000000000000000000000000000000000000000000000000000000082169050919050565b61223f8161220a565b811461224a57600080fd5b50565b60008135905061225c81612236565b92915050565b60006020828403121561227857612277612200565b5b60006122868482850161224d565b91505092915050565b60008115159050919050565b6122a48161228f565b82525050565b60006020820190506122bf600083018461229b565b92915050565b600081519050919050565b600082825260208201905092915050565b60005b838110156122ff5780820151818401526020810190506122e4565b60008484015250505050565b6000601f19601f8301169050919050565b6000612327826122c5565b61233181856122d0565b93506123418185602086016122e1565b61234a8161230b565b840191505092915050565b6000602082019050818103600083015261236f818461231c565b905092915050565b6000819050919050565b61238a81612377565b811461239557600080fd5b50565b6000813590506123a781612381565b92915050565b6000602082840312156123c3576123c2612200565b5b60006123d184828501612398565b91505092915050565b600073ffffffffffffffffffffffffffffffffffffffff82169050919050565b6000612405826123da565b9050919050565b612415816123fa565b82525050565b6000602082019050612430600083018461240c565b92915050565b61243f816123fa565b811461244a57600080fd5b50565b60008135905061245c81612436565b92915050565b6000806040838503121561247957612478612200565b5b60006124878582860161244d565b925050602061249885828601612398565b9150509250929050565b6000806000606084860312156124bb576124ba612200565b5b60006124c98682870161244d565b93505060206124da8682870161244d565b92505060406124eb86828701612398565b9150509250925092565b60006020828403121561250b5761250a612200565b5b60006125198482850161244d565b91505092915050565b600081519050919050565b600082825260208201905092915050565b6000819050602082019050919050565b61255781612377565b82525050565b6000612569838361254e565b60208301905092915050565b6000602082019050919050565b600061258d82612522565b612597818561252d565b93506125a28361253e565b8060005b838110156125d35781516125ba888261255d565b97506125c583612575565b9250506001810190506125a6565b5085935050505092915050565b600060208201905081810360008301526125fa8184612582565b905092915050565b61260b81612377565b82525050565b60006020820190506126266000830184612602565b92915050565b6000606082019050612641600083018661240c565b61264e602083018561240c565b61265b6040830184612602565b949350505050565b6000819050919050565b600061268861268361267e846123da565b612663565b6123da565b9050919050565b600061269a8261266d565b9050919050565b60006126ac8261268f565b9050919050565b6126bc816126a1565b82525050565b60006020820190506126d760008301846126b3565b92915050565b6126e68161228f565b81146126f157600080fd5b50565b600081359050612703816126dd565b92915050565b600080604083850312156127205761271f612200565b5b600061272e8582860161244d565b925050602061273f858286016126f4565b9150509250929050565b600080fd5b600080fd5b7f4e487b7100000000000000000000000000000000000000000000000000000000600052604160045260246000fd5b61278b8261230b565b810181811067ffffffffffffffff821117156127aa576127a9612753565b5b80604052505050565b60006127bd6121f6565b90506127c98282612782565b919050565b600067ffffffffffffffff8211156127e9576127e8612753565b5b6127f28261230b565b9050602081019050919050565b82818337600083830152505050565b600061282161281c846127ce565b6127b3565b90508281526020810184848401111561283d5761283c61274e565b5b6128488482856127ff565b509392505050565b600082601f83011261286557612864612749565b5b813561287584826020860161280e565b91505092915050565b6000806000806080858703121561289857612897612200565b5b60006128a68782880161244d565b94505060206128b78782880161244d565b93505060406128c887828801612398565b925050606085013567ffffffffffffffff8111156128e9576128e8612205565b5b6128f587828801612850565b91505092959194509250565b6000806040838503121561291857612917612200565b5b600061292685828601612398565b925050602061293785828601612398565b9150509250929050565b6000806040838503121561295857612957612200565b5b60006129668582860161244d565b92505060206129778582860161244d565b9150509250929050565b7f4e487b7100000000000000000000000000000000000000000000000000000000600052602260045260246000fd5b600060028204905060018216806129c857607f821691505b6020821081036129db576129da612981565b5b50919050565b60006060820190506129f6600083018661240c565b612a036020830185612602565b612a10604083018461240c565b949350505050565b7f4e487b7100000000000000000000000000000000000000000000000000000000600052601160045260246000fd5b6000612a5282612377565b91507fffffffffffffffffffffffffffffffffffffffffffffffffffffffffffffffff8203612a8457612a83612a18565b5b600182019050919050565b7f4e487b7100000000000000000000000000000000000000000000000000000000600052603260045260246000fd5b6000819050919050565b6000612ae3612ade612ad984612abe565b612663565b612377565b9050919050565b612af381612ac8565b82525050565b6000608082019050612b0e6000830187612602565b612b1b602083018661240c565b612b286040830185612aea565b612b356060830184612aea565b95945050505050565b7f4e6f20617661696c61626c6520636172204e465420746f20646973747269627560008201527f7465000000000000000000000000000000000000000000000000000000000000602082015250565b6000612b9a6022836122d0565b9150612ba582612b3e565b604082019050919050565b60006020820190508181036000830152612bc981612b8d565b9050919050565b6000612bdb82612377565b9150612be683612377565b9250828203905081811115612bfe57612bfd612a18565b5b92915050565b7f496e76616c69642063617220746f6b656e000000000000000000000000000000600082015250565b6000612c3a6011836122d0565b9150612c4582612c04565b602082019050919050565b60006020820190508181036000830152612c6981612c2d565b9050919050565b600081905092915050565b6000612c86826122c5565b612c908185612c70565b9350612ca08185602086016122e1565b80840191505092915050565b6000612cb88285612c7b565b9150612cc48284612c7b565b91508190509392505050565b7f43617220697320616c726561647920626f72726f776564000000000000000000600082015250565b6000612d066017836122d0565b9150612d1182612cd0565b602082019050919050565b60006020820190508181036000830152612d3581612cf9565b9050919050565b6000612d4782612377565b9150612d5283612377565b9250828201905080821115612d6a57612d69612a18565b5b92915050565b6000608082019050612d856000830187612602565b612d92602083018661240c565b612d9f6040830185612602565b612dac6060830184612602565b95945050505050565b600081519050919050565b600082825260208201905092915050565b6000612ddc82612db5565b612de68185612dc0565b9350612df68185602086016122e1565b612dff8161230b565b840191505092915050565b6000608082019050612e1f600083018761240c565b612e2c602083018661240c565b612e396040830185612602565b8181036060830152612e4b8184612dd1565b905095945050505050565b600081519050612e6581612236565b92915050565b600060208284031215612e8157612e80612200565b5b6000612e8f84828501612e56565b91505092915050565b7f4e487b7100000000000000000000000000000000000000000000000000000000600052601260045260246000fd5b6000604082019050612edc600083018561240c565b612ee96020830184612602565b939250505056fea26469706673582212208b1f8fa5b67107a3ed7fa0ccd48247fbc4ad77befebf168477b255a754f3fed364736f6c63430008140033",
  "linkReferences": {},
  "deployedLinkReferences": {}
}